{
  "_format": "hh-sol-artifact-1",
  "contractName": "AuditLogger",
  "sourceName": "contracts/AuditLogger.sol",
  "abi": [
    {
      "inputs": [],
      "stateMutability": "nonpayable",
      "type": "constructor"
    },
    {
      "anonymous": false,
      "inputs": [
        {
          "indexed": true,
          "internalType": "string",
          "name": "nodeId",
          "type": "string"
        },
        {
          "indexed": false,
          "internalType": "uint256",
          "name": "timestamp",
          "type": "uint256"
        },
        {
          "indexed": false,
          "internalType": "enum AuditLogger.NodeStatus",
          "name": "status",
          "type": "uint8"
        }
      ],
      "name": "MetricsLogged",
      "type": "event"
    },
    {
      "anonymous": false,
      "inputs": [
        {
          "indexed": true,
          "internalType": "string",
          "name": "nodeId",
          "type": "string"
        },
        {
          "indexed": false,
          "internalType": "string",
          "name": "action",
          "type": "string"
        },
        {
          "indexed": false,
          "internalType": "uint256",
          "name": "timestamp",
          "type": "uint256"
        }
      ],
      "name": "ScalingActionPerformed",
      "type": "event"
    },
    {
      "inputs": [
        {
          "internalType": "address",
          "name": "_logger",
          "type": "address"
        }
      ],
      "name": "addAuthorizedLogger",
      "outputs": [],
      "stateMutability": "nonpayable",
      "type": "function"
    },
    {
      "inputs": [
        {
          "internalType": "address",
          "name": "",
          "type": "address"
        }
      ],
      "name": "authorizedLoggers",
      "outputs": [
        {
          "internalType": "bool",
          "name": "",
          "type": "bool"
        }
      ],
      "stateMutability": "view",
      "type": "function"
    },
    {
      "inputs": [
        {
          "internalType": "string",
          "name": "_nodeId",
          "type": "string"
        }
      ],
      "name": "getLatestNodeMetrics",
      "outputs": [
        {
          "components": [
            {
              "internalType": "string",
              "name": "nodeId",
              "type": "string"
            },
            {
              "internalType": "uint256",
              "name": "timestamp",
              "type": "uint256"
            },
            {
              "internalType": "uint256",
              "name": "memoryUsage",
              "type": "uint256"
            },
            {
              "internalType": "uint256",
              "name": "cpuLoad",
              "type": "uint256"
            },
            {
              "internalType": "uint256",
              "name": "allocatedMemory",
              "type": "uint256"
            },
            {
              "internalType": "enum AuditLogger.NodeStatus",
              "name": "status",
              "type": "uint8"
            },
            {
              "internalType": "string",
              "name": "scaleAction",
              "type": "string"
            }
          ],
          "internalType": "struct AuditLogger.NodeMetrics",
          "name": "",
          "type": "tuple"
        }
      ],
      "stateMutability": "view",
      "type": "function"
    },
    {
      "inputs": [],
      "name": "getMetricsHistoryLength",
      "outputs": [
        {
          "internalType": "uint256",
          "name": "",
          "type": "uint256"
        }
      ],
      "stateMutability": "view",
      "type": "function"
    },
    {
      "inputs": [
        {
          "internalType": "string",
          "name": "_nodeId",
          "type": "string"
        },
        {
          "internalType": "uint256",
          "name": "_startIndex",
          "type": "uint256"
        },
        {
          "internalType": "uint256",
          "name": "_count",
          "type": "uint256"
        }
      ],
      "name": "getNodeMetricsHistory",
      "outputs": [
        {
          "components": [
            {
              "internalType": "string",
              "name": "nodeId",
              "type": "string"
            },
            {
              "internalType": "uint256",
              "name": "timestamp",
              "type": "uint256"
            },
            {
              "internalType": "uint256",
              "name": "memoryUsage",
              "type": "uint256"
            },
            {
              "internalType": "uint256",
              "name": "cpuLoad",
              "type": "uint256"
            },
            {
              "internalType": "uint256",
              "name": "allocatedMemory",
              "type": "uint256"
            },
            {
              "internalType": "enum AuditLogger.NodeStatus",
              "name": "status",
              "type": "uint8"
            },
            {
              "internalType": "string",
              "name": "scaleAction",
              "type": "string"
            }
          ],
          "internalType": "struct AuditLogger.NodeMetrics[]",
          "name": "",
          "type": "tuple[]"
        }
      ],
      "stateMutability": "view",
      "type": "function"
    },
    {
      "inputs": [],
      "name": "getScalingEventsLength",
      "outputs": [
        {
          "internalType": "uint256",
          "name": "",
          "type": "uint256"
        }
      ],
      "stateMutability": "view",
      "type": "function"
    },
    {
      "inputs": [
        {
          "internalType": "string",
          "name": "",
          "type": "string"
        }
      ],
      "name": "latestNodeMetrics",
      "outputs": [
        {
          "internalType": "string",
          "name": "nodeId",
          "type": "string"
        },
        {
          "internalType": "uint256",
          "name": "timestamp",
          "type": "uint256"
        },
        {
          "internalType": "uint256",
          "name": "memoryUsage",
          "type": "uint256"
        },
        {
          "internalType": "uint256",
          "name": "cpuLoad",
          "type": "uint256"
        },
        {
          "internalType": "uint256",
          "name": "allocatedMemory",
          "type": "uint256"
        },
        {
          "internalType": "enum AuditLogger.NodeStatus",
          "name": "status",
          "type": "uint8"
        },
        {
          "internalType": "string",
          "name": "scaleAction",
          "type": "string"
        }
      ],
      "stateMutability": "view",
      "type": "function"
    },
    {
      "inputs": [
        {
          "internalType": "string",
          "name": "_nodeId",
          "type": "string"
        },
        {
          "internalType": "uint256",
          "name": "_memoryUsage",
          "type": "uint256"
        },
        {
          "internalType": "uint256",
          "name": "_cpuLoad",
          "type": "uint256"
        },
        {
          "internalType": "uint256",
          "name": "_allocatedMemory",
          "type": "uint256"
        },
        {
          "internalType": "enum AuditLogger.NodeStatus",
          "name": "_status",
          "type": "uint8"
        }
      ],
      "name": "logNodeMetrics",
      "outputs": [],
      "stateMutability": "nonpayable",
      "type": "function"
    },
    {
      "inputs": [
        {
          "internalType": "string",
          "name": "_nodeId",
          "type": "string"
        },
        {
          "internalType": "string",
          "name": "_action",
          "type": "string"
        },
        {
          "internalType": "string",
          "name": "_reason",
          "type": "string"
        }
      ],
      "name": "logScalingAction",
      "outputs": [],
      "stateMutability": "nonpayable",
      "type": "function"
    },
    {
      "inputs": [
        {
          "internalType": "uint256",
          "name": "",
          "type": "uint256"
        }
      ],
      "name": "nodeMetricsHistory",
      "outputs": [
        {
          "internalType": "string",
          "name": "nodeId",
          "type": "string"
        },
        {
          "internalType": "uint256",
          "name": "timestamp",
          "type": "uint256"
        },
        {
          "internalType": "uint256",
          "name": "memoryUsage",
          "type": "uint256"
        },
        {
          "internalType": "uint256",
          "name": "cpuLoad",
          "type": "uint256"
        },
        {
          "internalType": "uint256",
          "name": "allocatedMemory",
          "type": "uint256"
        },
        {
          "internalType": "enum AuditLogger.NodeStatus",
          "name": "status",
          "type": "uint8"
        },
        {
          "internalType": "string",
          "name": "scaleAction",
          "type": "string"
        }
      ],
      "stateMutability": "view",
      "type": "function"
    },
    {
      "inputs": [],
      "name": "owner",
      "outputs": [
        {
          "internalType": "address",
          "name": "",
          "type": "address"
        }
      ],
      "stateMutability": "view",
      "type": "function"
    },
    {
      "inputs": [
        {
          "internalType": "address",
          "name": "_logger",
          "type": "address"
        }
      ],
      "name": "removeAuthorizedLogger",
      "outputs": [],
      "stateMutability": "nonpayable",
      "type": "function"
    },
    {
      "inputs": [
        {
          "internalType": "uint256",
          "name": "",
          "type": "uint256"
        }
      ],
      "name": "scalingEventHistory",
      "outputs": [
        {
          "internalType": "string",
          "name": "nodeId",
          "type": "string"
        },
        {
          "internalType": "uint256",
          "name": "timestamp",
          "type": "uint256"
        },
        {
          "internalType": "string",
          "name": "action",
          "type": "string"
        },
        {
          "internalType": "string",
          "name": "reason",
          "type": "string"
        },
        {
          "internalType": "address",
          "name": "initiator",
          "type": "address"
        }
      ],
      "stateMutability": "view",
      "type": "function"
    }
  ],
  "bytecode": "0x6080604052348015600f57600080fd5b5033600460006101000a81548173ffffffffffffffffffffffffffffffffffffffff021916908373ffffffffffffffffffffffffffffffffffffffff1602179055506001600360003373ffffffffffffffffffffffffffffffffffffffff1673ffffffffffffffffffffffffffffffffffffffff16815260200190815260200160002060006101000a81548160ff021916908315150217905550612905806100b86000396000f3fe608060405234801561001057600080fd5b50600436106100cf5760003560e01c80636e6ffaa31161008c578063c8e7816111610066578063c8e781611461022c578063da30391a14610248578063daa189321461027e578063f3926cc7146102b2576100cf565b80636e6ffaa3146101d45780638da5cb5b146101f0578063a0ba85521461020e576100cf565b8063066a3252146100d45780631b32ec771461010a57806327d499421461013a5780632801e43a146101565780636194e305146101865780636e20d1a6146101b6575b600080fd5b6100ee60048036038101906100e99190611715565b6102ce565b6040516101019796959493929190611858565b60405180910390f35b610124600480360381019061011f919061193a565b61043d565b6040516101319190611b7b565b60405180910390f35b610154600480360381019061014f9190611bfb565b6107e6565b005b610170600480360381019061016b9190611bfb565b6108d1565b60405161017d9190611c43565b60405180910390f35b6101a0600480360381019061019b9190611c5e565b6108f1565b6040516101ad9190611d4e565b60405180910390f35b6101be610ab3565b6040516101cb9190611d70565b60405180910390f35b6101ee60048036038101906101e99190611db0565b610ac0565b005b6101f8610e20565b6040516102059190611e59565b60405180910390f35b610216610e46565b6040516102239190611d70565b60405180910390f35b61024660048036038101906102419190611bfb565b610e52565b005b610262600480360381019061025d9190611fa4565b610f3d565b6040516102759796959493929190611858565b60405180910390f35b61029860048036038101906102939190611715565b6110b2565b6040516102a9959493929190611fed565b60405180910390f35b6102cc60048036038101906102c79190612055565b6112b0565b005b600081815481106102de57600080fd5b906000526020600020906007020160009150905080600001805461030190612138565b80601f016020809104026020016040519081016040528092919081815260200182805461032d90612138565b801561037a5780601f1061034f5761010080835404028352916020019161037a565b820191906000526020600020905b81548152906001019060200180831161035d57829003601f168201915b5050505050908060010154908060020154908060030154908060040154908060050160009054906101000a900460ff16908060060180546103ba90612138565b80601f01602080910402602001604051908101604052809291908181526020018280546103e690612138565b80156104335780601f1061040857610100808354040283529160200191610433565b820191906000526020600020905b81548152906001019060200180831161041657829003601f168201915b5050505050905087565b606060008054905082846104519190612198565b1115610492576040517f08c379a000000000000000000000000000000000000000000000000000000000815260040161048990612218565b60405180910390fd5b6000808490505b83856104a59190612198565b81101561051f5786866040516104bc929190612268565b6040518091039020600082815481106104d8576104d7612281565b5b90600052602060002090600702016000016040516104f69190612348565b60405180910390200361051257818061050e9061235f565b9250505b8080600101915050610499565b5060008167ffffffffffffffff81111561053c5761053b611e79565b5b60405190808252806020026020018201604052801561057557816020015b61056261167c565b81526020019060019003908161055a5790505b5090506000808690505b858761058b9190612198565b8110156107d75788886040516105a2929190612268565b6040518091039020600082815481106105be576105bd612281565b5b90600052602060002090600702016000016040516105dc9190612348565b6040518091039020036107ca57600081815481106105fd576105fc612281565b5b90600052602060002090600702016040518060e001604052908160008201805461062690612138565b80601f016020809104026020016040519081016040528092919081815260200182805461065290612138565b801561069f5780601f106106745761010080835404028352916020019161069f565b820191906000526020600020905b81548152906001019060200180831161068257829003601f168201915b50505050508152602001600182015481526020016002820154815260200160038201548152602001600482015481526020016005820160009054906101000a900460ff1660028111156106f5576106f46117e1565b5b6002811115610707576107066117e1565b5b815260200160068201805461071b90612138565b80601f016020809104026020016040519081016040528092919081815260200182805461074790612138565b80156107945780601f1061076957610100808354040283529160200191610794565b820191906000526020600020905b81548152906001019060200180831161077757829003601f168201915b5050505050815250508383815181106107b0576107af612281565b5b602002602001018190525081806107c69061235f565b9250505b808060010191505061057f565b50819350505050949350505050565b600460009054906101000a900473ffffffffffffffffffffffffffffffffffffffff1673ffffffffffffffffffffffffffffffffffffffff163373ffffffffffffffffffffffffffffffffffffffff1614610876576040517f08c379a000000000000000000000000000000000000000000000000000000000815260040161086d90612419565b60405180910390fd5b6001600360008373ffffffffffffffffffffffffffffffffffffffff1673ffffffffffffffffffffffffffffffffffffffff16815260200190815260200160002060006101000a81548160ff02191690831515021790555050565b60036020528060005260406000206000915054906101000a900460ff1681565b6108f961167c565b6002838360405161090b929190612469565b90815260200160405180910390206040518060e001604052908160008201805461093490612138565b80601f016020809104026020016040519081016040528092919081815260200182805461096090612138565b80156109ad5780601f10610982576101008083540402835291602001916109ad565b820191906000526020600020905b81548152906001019060200180831161099057829003601f168201915b50505050508152602001600182015481526020016002820154815260200160038201548152602001600482015481526020016005820160009054906101000a900460ff166002811115610a0357610a026117e1565b5b6002811115610a1557610a146117e1565b5b8152602001600682018054610a2990612138565b80601f0160208091040260200160405190810160405280929190818152602001828054610a5590612138565b8015610aa25780601f10610a7757610100808354040283529160200191610aa2565b820191906000526020600020905b815481529060010190602001808311610a8557829003601f168201915b505050505081525050905092915050565b6000600180549050905090565b600360003373ffffffffffffffffffffffffffffffffffffffff1673ffffffffffffffffffffffffffffffffffffffff16815260200190815260200160002060009054906101000a900460ff1680610b655750600460009054906101000a900473ffffffffffffffffffffffffffffffffffffffff1673ffffffffffffffffffffffffffffffffffffffff163373ffffffffffffffffffffffffffffffffffffffff16145b610ba4576040517f08c379a0000000000000000000000000000000000000000000000000000000008152600401610b9b906124ce565b60405180910390fd5b600042905060006040518060e0016040528089898080601f016020809104026020016040519081016040528093929190818152602001838380828437600081840152601f19601f820116905080830192505050505050508152602001838152602001878152602001868152602001858152602001846002811115610c2b57610c2a6117e1565b5b81526020016040518060400160405280600481526020017f6e6f6e650000000000000000000000000000000000000000000000000000000081525081525090508060028989604051610c7e929190612469565b90815260200160405180910390206000820151816000019081610ca1919061269a565b506020820151816001015560408201518160020155606082015181600301556080820151816004015560a08201518160050160006101000a81548160ff02191690836002811115610cf557610cf46117e1565b5b021790555060c0820151816006019081610d0f919061269a565b5090505060008190806001815401808255809150506001900390600052602060002090600702016000909190919091506000820151816000019081610d54919061269a565b506020820151816001015560408201518160020155606082015181600301556080820151816004015560a08201518160050160006101000a81548160ff02191690836002811115610da857610da76117e1565b5b021790555060c0820151816006019081610dc2919061269a565b5050508787604051610dd5929190612469565b60405180910390207f75ecc52f7a3b1fd3057e498a35a92d7cb66b0bdf5823024dec8c8639a4d3819a8385604051610e0e92919061276c565b60405180910390a25050505050505050565b600460009054906101000a900473ffffffffffffffffffffffffffffffffffffffff1681565b60008080549050905090565b600460009054906101000a900473ffffffffffffffffffffffffffffffffffffffff1673ffffffffffffffffffffffffffffffffffffffff163373ffffffffffffffffffffffffffffffffffffffff1614610ee2576040517f08c379a0000000000000000000000000000000000000000000000000000000008152600401610ed990612419565b60405180910390fd5b6000600360008373ffffffffffffffffffffffffffffffffffffffff1673ffffffffffffffffffffffffffffffffffffffff16815260200190815260200160002060006101000a81548160ff02191690831515021790555050565b600281805160208101820180518482526020830160208501208183528095505050505050600091509050806000018054610f7690612138565b80601f0160208091040260200160405190810160405280929190818152602001828054610fa290612138565b8015610fef5780601f10610fc457610100808354040283529160200191610fef565b820191906000526020600020905b815481529060010190602001808311610fd257829003601f168201915b5050505050908060010154908060020154908060030154908060040154908060050160009054906101000a900460ff169080600601805461102f90612138565b80601f016020809104026020016040519081016040528092919081815260200182805461105b90612138565b80156110a85780601f1061107d576101008083540402835291602001916110a8565b820191906000526020600020905b81548152906001019060200180831161108b57829003601f168201915b5050505050905087565b600181815481106110c257600080fd5b90600052602060002090600502016000915090508060000180546110e590612138565b80601f016020809104026020016040519081016040528092919081815260200182805461111190612138565b801561115e5780601f106111335761010080835404028352916020019161115e565b820191906000526020600020905b81548152906001019060200180831161114157829003601f168201915b50505050509080600101549080600201805461117990612138565b80601f01602080910402602001604051908101604052809291908181526020018280546111a590612138565b80156111f25780601f106111c7576101008083540402835291602001916111f2565b820191906000526020600020905b8154815290600101906020018083116111d557829003601f168201915b50505050509080600301805461120790612138565b80601f016020809104026020016040519081016040528092919081815260200182805461123390612138565b80156112805780601f1061125557610100808354040283529160200191611280565b820191906000526020600020905b81548152906001019060200180831161126357829003601f168201915b5050505050908060040160009054906101000a900473ffffffffffffffffffffffffffffffffffffffff16905085565b600360003373ffffffffffffffffffffffffffffffffffffffff1673ffffffffffffffffffffffffffffffffffffffff16815260200190815260200160002060009054906101000a900460ff16806113555750600460009054906101000a900473ffffffffffffffffffffffffffffffffffffffff1673ffffffffffffffffffffffffffffffffffffffff163373ffffffffffffffffffffffffffffffffffffffff16145b611394576040517f08c379a000000000000000000000000000000000000000000000000000000000815260040161138b906124ce565b60405180910390fd5b600042905060006040518060a0016040528089898080601f016020809104026020016040519081016040528093929190818152602001838380828437600081840152601f19601f82011690508083019250505050505050815260200183815260200187878080601f016020809104026020016040519081016040528093929190818152602001838380828437600081840152601f19601f82011690508083019250505050505050815260200185858080601f016020809104026020016040519081016040528093929190818152602001838380828437600081840152601f19601f8201169050808301925050505050505081526020013373ffffffffffffffffffffffffffffffffffffffff1681525090506000600289896040516114ba929190612469565b908152602001604051809103902060000180546114d690612138565b9050111561155e57858560028a8a6040516114f2929190612469565b908152602001604051809103902060060191826115109291906127a0565b50600160028989604051611525929190612469565b908152602001604051809103902060050160006101000a81548160ff02191690836002811115611558576115576117e1565b5b02179055505b6001819080600181540180825580915050600190039060005260206000209060050201600090919091909150600082015181600001908161159f919061269a565b506020820151816001015560408201518160020190816115bf919061269a565b5060608201518160030190816115d5919061269a565b5060808201518160040160006101000a81548173ffffffffffffffffffffffffffffffffffffffff021916908373ffffffffffffffffffffffffffffffffffffffff1602179055505050878760405161162f929190612469565b60405180910390207f6b1c5cd48b12dfcf1dff8015f22128c41bca648bb92dcf93b59fdbb9aa24518887878560405161166a9392919061289d565b60405180910390a25050505050505050565b6040518060e001604052806060815260200160008152602001600081526020016000815260200160008152602001600060028111156116be576116bd6117e1565b5b8152602001606081525090565b6000604051905090565b600080fd5b600080fd5b6000819050919050565b6116f2816116df565b81146116fd57600080fd5b50565b60008135905061170f816116e9565b92915050565b60006020828403121561172b5761172a6116d5565b5b600061173984828501611700565b91505092915050565b600081519050919050565b600082825260208201905092915050565b60005b8381101561177c578082015181840152602081019050611761565b60008484015250505050565b6000601f19601f8301169050919050565b60006117a482611742565b6117ae818561174d565b93506117be81856020860161175e565b6117c781611788565b840191505092915050565b6117db816116df565b82525050565b7f4e487b7100000000000000000000000000000000000000000000000000000000600052602160045260246000fd5b60038110611821576118206117e1565b5b50565b600081905061183282611810565b919050565b600061184282611824565b9050919050565b61185281611837565b82525050565b600060e0820190508181036000830152611872818a611799565b905061188160208301896117d2565b61188e60408301886117d2565b61189b60608301876117d2565b6118a860808301866117d2565b6118b560a0830185611849565b81810360c08301526118c78184611799565b905098975050505050505050565b600080fd5b600080fd5b600080fd5b60008083601f8401126118fa576118f96118d5565b5b8235905067ffffffffffffffff811115611917576119166118da565b5b602083019150836001820283011115611933576119326118df565b5b9250929050565b60008060008060608587031215611954576119536116d5565b5b600085013567ffffffffffffffff811115611972576119716116da565b5b61197e878288016118e4565b9450945050602061199187828801611700565b92505060406119a287828801611700565b91505092959194509250565b600081519050919050565b600082825260208201905092915050565b6000819050602082019050919050565b600082825260208201905092915050565b60006119f682611742565b611a0081856119da565b9350611a1081856020860161175e565b611a1981611788565b840191505092915050565b611a2d816116df565b82525050565b611a3c81611837565b82525050565b600060e0830160008301518482036000860152611a5f82826119eb565b9150506020830151611a746020860182611a24565b506040830151611a876040860182611a24565b506060830151611a9a6060860182611a24565b506080830151611aad6080860182611a24565b5060a0830151611ac060a0860182611a33565b5060c083015184820360c0860152611ad882826119eb565b9150508091505092915050565b6000611af18383611a42565b905092915050565b6000602082019050919050565b6000611b11826119ae565b611b1b81856119b9565b935083602082028501611b2d856119ca565b8060005b85811015611b695784840389528151611b4a8582611ae5565b9450611b5583611af9565b925060208a01995050600181019050611b31565b50829750879550505050505092915050565b60006020820190508181036000830152611b958184611b06565b905092915050565b600073ffffffffffffffffffffffffffffffffffffffff82169050919050565b6000611bc882611b9d565b9050919050565b611bd881611bbd565b8114611be357600080fd5b50565b600081359050611bf581611bcf565b92915050565b600060208284031215611c1157611c106116d5565b5b6000611c1f84828501611be6565b91505092915050565b60008115159050919050565b611c3d81611c28565b82525050565b6000602082019050611c586000830184611c34565b92915050565b60008060208385031215611c7557611c746116d5565b5b600083013567ffffffffffffffff811115611c9357611c926116da565b5b611c9f858286016118e4565b92509250509250929050565b600060e0830160008301518482036000860152611cc882826119eb565b9150506020830151611cdd6020860182611a24565b506040830151611cf06040860182611a24565b506060830151611d036060860182611a24565b506080830151611d166080860182611a24565b5060a0830151611d2960a0860182611a33565b5060c083015184820360c0860152611d4182826119eb565b9150508091505092915050565b60006020820190508181036000830152611d688184611cab565b905092915050565b6000602082019050611d8560008301846117d2565b92915050565b60038110611d9857600080fd5b50565b600081359050611daa81611d8b565b92915050565b60008060008060008060a08789031215611dcd57611dcc6116d5565b5b600087013567ffffffffffffffff811115611deb57611dea6116da565b5b611df789828a016118e4565b96509650506020611e0a89828a01611700565b9450506040611e1b89828a01611700565b9350506060611e2c89828a01611700565b9250506080611e3d89828a01611d9b565b9150509295509295509295565b611e5381611bbd565b82525050565b6000602082019050611e6e6000830184611e4a565b92915050565b600080fd5b7f4e487b7100000000000000000000000000000000000000000000000000000000600052604160045260246000fd5b611eb182611788565b810181811067ffffffffffffffff82111715611ed057611ecf611e79565b5b80604052505050565b6000611ee36116cb565b9050611eef8282611ea8565b919050565b600067ffffffffffffffff821115611f0f57611f0e611e79565b5b611f1882611788565b9050602081019050919050565b82818337600083830152505050565b6000611f47611f4284611ef4565b611ed9565b905082815260208101848484011115611f6357611f62611e74565b5b611f6e848285611f25565b509392505050565b600082601f830112611f8b57611f8a6118d5565b5b8135611f9b848260208601611f34565b91505092915050565b600060208284031215611fba57611fb96116d5565b5b600082013567ffffffffffffffff811115611fd857611fd76116da565b5b611fe484828501611f76565b91505092915050565b600060a08201905081810360008301526120078188611799565b905061201660208301876117d2565b81810360408301526120288186611799565b9050818103606083015261203c8185611799565b905061204b6080830184611e4a565b9695505050505050565b60008060008060008060608789031215612072576120716116d5565b5b600087013567ffffffffffffffff8111156120905761208f6116da565b5b61209c89828a016118e4565b9650965050602087013567ffffffffffffffff8111156120bf576120be6116da565b5b6120cb89828a016118e4565b9450945050604087013567ffffffffffffffff8111156120ee576120ed6116da565b5b6120fa89828a016118e4565b92509250509295509295509295565b7f4e487b7100000000000000000000000000000000000000000000000000000000600052602260045260246000fd5b6000600282049050600182168061215057607f821691505b60208210810361216357612162612109565b5b50919050565b7f4e487b7100000000000000000000000000000000000000000000000000000000600052601160045260246000fd5b60006121a3826116df565b91506121ae836116df565b92508282019050808211156121c6576121c5612169565b5b92915050565b7f496e646578206f7574206f6620626f756e647300000000000000000000000000600082015250565b600061220260138361174d565b915061220d826121cc565b602082019050919050565b60006020820190508181036000830152612231816121f5565b9050919050565b600081905092915050565b600061224f8385612238565b935061225c838584611f25565b82840190509392505050565b6000612275828486612243565b91508190509392505050565b7f4e487b7100000000000000000000000000000000000000000000000000000000600052603260045260246000fd5b60008190508160005260206000209050919050565b600081546122d281612138565b6122dc8186612238565b945060018216600081146122f7576001811461230c5761233f565b60ff198316865281151582028601935061233f565b612315856122b0565b60005b8381101561233757815481890152600182019150602081019050612318565b838801955050505b50505092915050565b600061235482846122c5565b915081905092915050565b600061236a826116df565b91507fffffffffffffffffffffffffffffffffffffffffffffffffffffffffffffffff820361239c5761239b612169565b5b600182019050919050565b7f4f6e6c7920636f6e7472616374206f776e65722063616e2063616c6c2074686960008201527f732066756e6374696f6e00000000000000000000000000000000000000000000602082015250565b6000612403602a8361174d565b915061240e826123a7565b604082019050919050565b60006020820190508181036000830152612432816123f6565b9050919050565b600081905092915050565b60006124508385612439565b935061245d838584611f25565b82840190509392505050565b6000612476828486612444565b91508190509392505050565b7f43616c6c6572206e6f7420617574686f72697a65640000000000000000000000600082015250565b60006124b860158361174d565b91506124c382612482565b602082019050919050565b600060208201905081810360008301526124e7816124ab565b9050919050565b60008190508160005260206000209050919050565b60006020601f8301049050919050565b600082821b905092915050565b6000600883026125507fffffffffffffffffffffffffffffffffffffffffffffffffffffffffffffffff82612513565b61255a8683612513565b95508019841693508086168417925050509392505050565b6000819050919050565b600061259761259261258d846116df565b612572565b6116df565b9050919050565b6000819050919050565b6125b18361257c565b6125c56125bd8261259e565b848454612520565b825550505050565b600090565b6125da6125cd565b6125e58184846125a8565b505050565b5b81811015612609576125fe6000826125d2565b6001810190506125eb565b5050565b601f82111561264e5761261f816124ee565b61262884612503565b81016020851015612637578190505b61264b61264385612503565b8301826125ea565b50505b505050565b600082821c905092915050565b600061267160001984600802612653565b1980831691505092915050565b600061268a8383612660565b9150826002028217905092915050565b6126a382611742565b67ffffffffffffffff8111156126bc576126bb611e79565b5b6126c68254612138565b6126d182828561260d565b600060209050601f83116001811461270457600084156126f2578287015190505b6126fc858261267e565b865550612764565b601f198416612712866124ee565b60005b8281101561273a57848901518255600182019150602085019450602081019050612715565b868310156127575784890151612753601f891682612660565b8355505b6001600288020188555050505b505050505050565b600060408201905061278160008301856117d2565b61278e6020830184611849565b9392505050565b600082905092915050565b6127aa8383612795565b67ffffffffffffffff8111156127c3576127c2611e79565b5b6127cd8254612138565b6127d882828561260d565b6000601f83116001811461280757600084156127f5578287013590505b6127ff858261267e565b865550612867565b601f198416612815866124ee565b60005b8281101561283d57848901358255600182019150602085019450602081019050612818565b8683101561285a5784890135612856601f891682612660565b8355505b6001600288020188555050505b50505050505050565b600061287c838561174d565b9350612889838584611f25565b61289283611788565b840190509392505050565b600060408201905081810360008301526128b8818587612870565b90506128c760208301846117d2565b94935050505056fea2646970667358221220924cf2b7364a9d6db4b7b7ad5fb482f7c3bc0fcdd98f66baacc2f8462ae0747864736f6c634300081c0033",
  "linkReferences": {},
  "deployedLinkReferences": {}
}